{
  "_format": "hh-sol-artifact-1",
  "contractName": "FundMe",
  "sourceName": "contracts/FundMe.sol",
  "abi": [
    {
      "inputs": [],
      "stateMutability": "nonpayable",
      "type": "constructor"
    },
    {
      "stateMutability": "payable",
      "type": "fallback"
    },
    {
      "inputs": [
        {
          "internalType": "address",
          "name": "",
          "type": "address"
        }
      ],
      "name": "addressToAmountFunded",
      "outputs": [
        {
          "internalType": "uint256",
          "name": "",
          "type": "uint256"
        }
      ],
      "stateMutability": "view",
      "type": "function"
    },
    {
      "inputs": [],
      "name": "fund",
      "outputs": [],
      "stateMutability": "payable",
      "type": "function"
    },
    {
      "inputs": [
        {
          "internalType": "uint256",
          "name": "",
          "type": "uint256"
        }
      ],
      "name": "funders",
      "outputs": [
        {
          "internalType": "address",
          "name": "",
          "type": "address"
        }
      ],
      "stateMutability": "view",
      "type": "function"
    },
    {
      "inputs": [],
      "name": "owner",
      "outputs": [
        {
          "internalType": "address",
          "name": "",
          "type": "address"
        }
      ],
      "stateMutability": "view",
      "type": "function"
    },
    {
      "inputs": [],
      "name": "withdraw",
      "outputs": [],
      "stateMutability": "nonpayable",
      "type": "function"
    },
    {
      "stateMutability": "payable",
      "type": "receive"
    }
  ],
  "bytecode": "0x6080604052670de0b6b3a7640000600355348015601b57600080fd5b50336000806101000a81548173ffffffffffffffffffffffffffffffffffffffff021916908373ffffffffffffffffffffffffffffffffffffffff160217905550610c2d8061006b6000396000f3fe60806040526004361061004e5760003560e01c80633ccfd60b146100675780633e47d6f31461007e5780638da5cb5b146100bb578063b60d4288146100e6578063dc0d3dff146100f05761005d565b3661005d5761005b61012d565b005b61006561012d565b005b34801561007357600080fd5b5061007c610223565b005b34801561008a57600080fd5b506100a560048036038101906100a091906106c9565b610461565b6040516100b2919061070f565b60405180910390f35b3480156100c757600080fd5b506100d0610479565b6040516100dd9190610739565b60405180910390f35b6100ee61012d565b005b3480156100fc57600080fd5b5061011760048036038101906101129190610780565b61049d565b6040516101249190610739565b60405180910390f35b600354610139346104dc565b101561017a576040517f08c379a00000000000000000000000000000000000000000000000000000000081526004016101719061080a565b60405180910390fd5b6001339080600181540180825580915050600190039060005260206000200160009091909190916101000a81548173ffffffffffffffffffffffffffffffffffffffff021916908373ffffffffffffffffffffffffffffffffffffffff16021790555034600260003373ffffffffffffffffffffffffffffffffffffffff1673ffffffffffffffffffffffffffffffffffffffff16815260200190815260200160002081905550565b60008054906101000a900473ffffffffffffffffffffffffffffffffffffffff1673ffffffffffffffffffffffffffffffffffffffff163373ffffffffffffffffffffffffffffffffffffffff16146102b1576040517f08c379a00000000000000000000000000000000000000000000000000000000081526004016102a890610876565b60405180910390fd5b60005b60018054905081101561035157600060026000600184815481106102db576102da610896565b5b9060005260206000200160009054906101000a900473ffffffffffffffffffffffffffffffffffffffff1673ffffffffffffffffffffffffffffffffffffffff1673ffffffffffffffffffffffffffffffffffffffff1681526020019081526020016000208190555080806001019150506102b4565b50600067ffffffffffffffff81111561036d5761036c6108c5565b5b60405190808252806020026020018201604052801561039b5781602001602082028036833780820191505090505b50600190805190602001906103b19291906105bf565b5060003373ffffffffffffffffffffffffffffffffffffffff16476040516103d890610925565b60006040518083038185875af1925050503d8060008114610415576040519150601f19603f3d011682016040523d82523d6000602084013e61041a565b606091505b505090508061045e576040517f08c379a000000000000000000000000000000000000000000000000000000000815260040161045590610986565b60405180910390fd5b50565b60026020528060005260406000206000915090505481565b60008054906101000a900473ffffffffffffffffffffffffffffffffffffffff1681565b600181815481106104ad57600080fd5b906000526020600020016000915054906101000a900473ffffffffffffffffffffffffffffffffffffffff1681565b6000806104e7610516565b90506000670de0b6b3a7640000848361050091906109d5565b61050a9190610a46565b90508092505050919050565b60008073694aa1769357215de4fac081bf1f309adc325306905060008173ffffffffffffffffffffffffffffffffffffffff1663feaf968c6040518163ffffffff1660e01b815260040160a060405180830381865afa15801561057d573d6000803e3d6000fd5b505050506040513d601f19601f820116820180604052508101906105a19190610b04565b5050509150506402540be400816105b89190610b7f565b9250505090565b828054828255906000526020600020908101928215610638579160200282015b828111156106375782518260006101000a81548173ffffffffffffffffffffffffffffffffffffffff021916908373ffffffffffffffffffffffffffffffffffffffff160217905550916020019190600101906105df565b5b5090506106459190610649565b5090565b5b8082111561066257600081600090555060010161064a565b5090565b600080fd5b600073ffffffffffffffffffffffffffffffffffffffff82169050919050565b60006106968261066b565b9050919050565b6106a68161068b565b81146106b157600080fd5b50565b6000813590506106c38161069d565b92915050565b6000602082840312156106df576106de610666565b5b60006106ed848285016106b4565b91505092915050565b6000819050919050565b610709816106f6565b82525050565b60006020820190506107246000830184610700565b92915050565b6107338161068b565b82525050565b600060208201905061074e600083018461072a565b92915050565b61075d816106f6565b811461076857600080fd5b50565b60008135905061077a81610754565b92915050565b60006020828403121561079657610795610666565b5b60006107a48482850161076b565b91505092915050565b600082825260208201905092915050565b7f4e6f7420656e6f756768204554482073656e7421000000000000000000000000600082015250565b60006107f46014836107ad565b91506107ff826107be565b602082019050919050565b60006020820190508181036000830152610823816107e7565b9050919050565b7f4f6e6c7920776974686472617761626c6520746f206f776e6572210000000000600082015250565b6000610860601b836107ad565b915061086b8261082a565b602082019050919050565b6000602082019050818103600083015261088f81610853565b9050919050565b7f4e487b7100000000000000000000000000000000000000000000000000000000600052603260045260246000fd5b7f4e487b7100000000000000000000000000000000000000000000000000000000600052604160045260246000fd5b600081905092915050565b50565b600061090f6000836108f4565b915061091a826108ff565b600082019050919050565b600061093082610902565b9150819050919050565b7f43616c6c206661696c6564000000000000000000000000000000000000000000600082015250565b6000610970600b836107ad565b915061097b8261093a565b602082019050919050565b6000602082019050818103600083015261099f81610963565b9050919050565b7f4e487b7100000000000000000000000000000000000000000000000000000000600052601160045260246000fd5b60006109e0826106f6565b91506109eb836106f6565b92508282026109f9816106f6565b91508282048414831517610a1057610a0f6109a6565b5b5092915050565b7f4e487b7100000000000000000000000000000000000000000000000000000000600052601260045260246000fd5b6000610a51826106f6565b9150610a5c836106f6565b925082610a6c57610a6b610a17565b5b828204905092915050565b600069ffffffffffffffffffff82169050919050565b610a9681610a77565b8114610aa157600080fd5b50565b600081519050610ab381610a8d565b92915050565b6000819050919050565b610acc81610ab9565b8114610ad757600080fd5b50565b600081519050610ae981610ac3565b92915050565b600081519050610afe81610754565b92915050565b600080600080600060a08688031215610b2057610b1f610666565b5b6000610b2e88828901610aa4565b9550506020610b3f88828901610ada565b9450506040610b5088828901610aef565b9350506060610b6188828901610aef565b9250506080610b7288828901610aa4565b9150509295509295909350565b6000610b8a82610ab9565b9150610b9583610ab9565b9250828202610ba381610ab9565b91507f80000000000000000000000000000000000000000000000000000000000000008414600084121615610bdb57610bda6109a6565b5b8282058414831517610bf057610bef6109a6565b5b509291505056fea264697066735822122006b51212002fb783e11b79bddb1fb7c58c11d27938cd1de2d6a4ef77d645ac0564736f6c634300081c0033",
  "linkReferences": {},
  "deployedLinkReferences": {}
}